:100000000A128A11FC2F00308A000408840A820731
:10001000003441346E342034643465347034203418
:10002000743472346134693400346C3461346D3446
:0200300000349A
:100D5000831203130814C730F000AE2EF00BAD2E33
:100D6000B12EB22E831203130810C730F000B82E34
:100D7000F00BB72EBB2EBC2E08000A128A11712769
:100D80000A128A1101300A128A11DA260A128A110D
:100D9000F301F30A0C300A128A11F9260A128A1199
:100DA0000D300A128A11DA260A128A11D62E0A1278
:100DB0008A110028F300EC2E730884000A128A11AD
:100DC00003200A128A110A128A1145270A128A116F
:100DD0000130FF007F08F307730884000A128A11AC
:100DE00003200A128A11003A031DF72EF82EDC2E7A
:100DF0000800F60073080319FE2EFF2E062FC030E0
:100E0000F7007608FF007F08F707092F8030F7000A
:100E1000012F77080A128A1119270A128A116830DD
:100E2000F500E430F400F40B132FF50B132F000042
:100E30000800F2008312031388100F30FF007F08B0
:100E400088057208F039FF007F0888040A128A11A9
:100E5000A8260A128A110F30FF007F08831203139D
:100E600088057208F10003300310F10DFF3E031DE9
:100E7000342F0310710DF039FF007F0888040A1227
:100E80008A11A8260A128A110800F200831203139D
:100E900088140F30FF007F0888057208F039FF00C2
:100EA0007F0888040A128A11A8260A128A110F30B4
:100EB000FF007F088312031388057208F1000330D6
:100EC0000310F10DFF3E031D602F0310710DF0396B
:100ED000FF007F0888040A128A11A8260A128A11C4
:100EE00008008312031308108810081288120813D0
:100EF0008813831603130810881008128812081329
:100F000088136830F400E430F300F30B852FF40B02
:100F1000852F00000F30FF007F0883120313880520
:100F20003030FF007F0888040A128A11A8260A12AE
:100F30008A111030F4009430F300F30B9D2FF40B62
:100F40009D2F00000F30FF007F08831203138805D8
:100F50003030FF007F0888040A128A11A8260A127E
:100F60008A11C730F300F30BB32FB62F0F30FF00F9
:100F70007F088312031388053030FF007F08880440
:100F80000A128A11A8260A128A110630F40030309B
:100F9000F300F30BC92FF40BC92F00000F30FF0033
:100FA0007F0883120313880588160A128A11A8265F
:100FB0000A128A110630F4003030F300F30BDE2FF2
:100FC000F40BDE2F000028300A128A1119270A12AA
:100FD0008A110D300A128A1119270A128A1101305A
:100FE0000A128A1119270A128A1106300A128A1166
:100FF00019270A128A11080083010A128A11BD2ECC
:08400000FF3FFF3FFF3FFF3FC0
:02400E003A3F37
:00000001FF
