:060000000A128A11FC2F18
:100DFE000A128A1171270A128A11F301F30A0A30B4
:100E0E000A128A1125270A128A110C2F0A128A1128
:100E1E000028831203130814C730F000162FF00BAE
:100E2E00152F192F1A2F831203130810C730F00035
:100E3E00202FF00B1F2F232F242F0800F6007308EE
:100E4E0003192A2F2B2F322FC030F7007608FF0000
:100E5E007F08F707352F8030F7002D2F77080A12FD
:100E6E008A1145270A128A116830F500E430F40021
:100E7E00F40B3F2FF50B3F2F00000800F2008312FA
:100E8E00031388100F30FF007F0888057208F039B1
:100E9E00FF007F0888040A128A1110270A128A118D
:100EAE000F30FF007F088312031388057208F100CC
:100EBE0003300310F10DFF3E031D602F0310710D63
:100ECE00F039FF007F0888040A128A1110270A12CF
:100EDE008A11080083120313081088100812881252
:100EEE00081388138316031308108810081288122B
:100EFE00081388136830F400E430F300F30B852FE9
:100F0E00F40B852F00000F30FF007F0883120313B0
:100F1E0088053030FF007F0888040A128A111027D6
:100F2E000A128A111030F4009430F300F30B9D2F47
:100F3E00F40B9D2F00000F30FF007F088312031368
:100F4E0088053030FF007F0888040A128A111027A6
:100F5E000A128A11C730F300F30BB32FB62F0F30DE
:100F6E00FF007F088312031388053030FF007F08CF
:100F7E0088040A128A1110270A128A110630F40008
:100F8E003030F300F30BC92FF40BC92F00000F30D4
:100F9E00FF007F0883120313880588160A128A1130
:100FAE0010270A128A110630F4003030F300F30BCA
:100FBE00DE2FF40BDE2F000028300A128A1145278F
:100FCE000A128A110D300A128A1145270A128A1145
:100FDE0001300A128A1145270A128A1106300A12A6
:100FEE008A1145270A128A11080083010A128A11F2
:020FFE00FF2EC4
:08400000FF3FFF3FFF3FFF3FC0
:02400E003A3F37
:00000001FF
